:03000000020B21CF
:0C0B2100787FE4F6D8FD758148020B686F
:100C2900414343454C2020205820202020202000EB
:100C390059202020202020205A2020202020200058
:100C49004759524F202020205820202020202000C2
:100C5900414E474C45202020583A20202020200092
:100C6900593A2020202020205A3A202020202000F4
:100C79000E0C0D090B0307060607030B090D0C0ED5
:070FB40001100202080028F1
:100F55007C007D641203F3EF1FAC0670011E4C701C
:010F6500F695
:010F66002268
:080BAD008F2A8E298D288C2768
:100BB500E4F52DF531F530F52FF52EFF7E10FDFC12
:100BC500AB2AAA29A928A827120479E47B687A0107
:100BD500F9F81205048F318E308D2F8C2E782E74F6
:100BE500FF1205C6EC4D4E4F6036AB9053030FE533
:100BF5002C75F008A42479F582E4340CF583E5829C
:100C0500252DF582E43583F583E493C454F042033E
:100C15008B90052D532D077F017E00120F5580BD4A
:030C25004390F009
:010C280022A9
:100E520030B10320B0167F057E00120F5520B10479
:100E6200E4FEFF2220B0057E007F01227E007F0289
:010E7200225D
:100A9100752100752202E4F523F524F5257526025A
:100AA1007F64FE120EAD120D2A120CE1120E3012ED
:100AB1000DA47F057E00120EAD0524E5247002050C
:100AC10023C3E50D94ECE50C6480947F5020E5246C
:100AD1009403E523648094804014E4F52BF52C7F86
:100AE10001FEFDFC120BADE4F523F52480C1D3E535
:100AF1000D9414E50C6480948040B4D3E5249403F0
:100B0100E5236480948040A7752B00752C017F013B
:100B11007E007D007C00120BADE4F523F524808F6F
:100DA4000509E509AE087002050814D39428EE94E9
:100DB400004023E4F508F509F52A752B00752C0C81
:100DC400F52D752E00752F0E851030FB7A00790AEB
:060DD4001205E4120D6B94
:010DDA0022F6
:100D6B00E510600A64016006E5106402702A752BB9
:100D7B0005AB0BAA0AE4FD7F0A1209EE752B05AB36
:100D8B000DAA0C7D017F021209EE752B05AB0FAA84
:090D9B000E7D017F0A1209EE220F
:100CE100120F76E51070087BFF7A0C7929800CE5EC
:100CF10010B401147BFF7A0C7949E4FDFF120C89D1
:100D01007BFF7A0C79398017E510B402197BFF7AE1
:100D11000C7959E4FDFF120C897BFF7A0C79697D0E
:090D210001E4FF120C89020D6BC4
:030FBC00DFFE2233
:100EAD00AD07AC06ED1DAE0470011C4E600C7FF558
:0B0EBD00120FBC7FF5120FBC80EA2270
:0809EE008F278D288A298B2A2E
:1009F600752D00752E01E527252B14FFC007AE299E
:100A0600AF2A7C007D0A120405ED2430FBD007AD29
:100A160028120FAAE52B64016070752C01E52CC322
:100A2600952B5013AE2DAF2E7C007D0A1203F38E4C
:100A36002D8F2E052C80E6752C01E52CC3952B50A9
:100A460049C3E52A952EE529952D401EAC2DAD2EE0
:100A5600AE29AF2A1204057C007D0A120405ED2496
:100A660030FBE527252C14FF8008E527252C14FFED
:100A76007B20AD28120FAAAE2DAF2E7C007D0A1268
:0A0A860004058E2D8F2E052C80B084
:010A90002243
:0A0C89008F278D288B298A2A892BDA
:100C9300E4F5308B2C8A2D892EAB29052BE52BAA65
:100CA3002A7002052A14F91203AD6004053080E9A5
:100CB300E4F52FE52FC395305023AF270527AB2C41
:100CC300AA2DA92E852F827583001203C6FBAD289A
:0D0CD300120FAAE52764106004052F80D6DB
:010CE00022F1
:100F2B00EF540FFF530501ED600343074043078068
:050F3B007D01020E958E
:0A0FAA008B31120F2BAF31020F4004
:100D2A00120E917F057E00120EAD120E917F057E86
:100D3A0000120EAD120E917F057E00120EAD7D01DE
:100D4A007F38120E957D017F08120E957D017F0175
:100D5A00120E957D017F06120E957D017F0C020E03
:010D6A0095F3
:0E0F76007D017F01120E957F057E00020EADFB
:040E9100E4FD7F38C5
:100E95008F32ED6003120DDBC2A6C2A5008532803C
:080EA50000D2A70000C2A72241
:100F40008F32120DDBD2A6C2A5D2A7008532800057
:050F50000000C2A72211
:100DDB00E4F533F5347580FFC2A6D2A500D2A70087
:100DEB0000E58030E71AC3E53494E8E5339403500B
:100DFB000F7F02120FBC0534E53470E5053380E13B
:020E0B00C2A77C
:010E0D0022C2
:100EE2000000000000000000000000000000000000
:090EF200000000000000000022D5
:0F0F6700D291D290120EE2C291120EE2C29022EB
:0C0F9200C291D290120EE2D291020EE247
:0E0F8400A2039291D290120EE2C290020EE2EF
:0C0F9E00D290120EE2A291C290020EE26C
:100EFB00E4FEEF25E0FF9291D290120EE2C2901227
:090F0B000EE20EBE08EC020F9E7E
:100E7300E4FFD291FEEF25E0FFD290120EE2A291A1
:0D0E8300E4334207C290120EE20EBE08E8F2
:010E9000223F
:100F1400AC07120F677FD0120EFBAF04120EFBAFAB
:070F240005120EFB020F9203
:020E0E00AD072E
:100E1000120F677FD0120EFBAF05120EFB120F6789
:100E20007FD1120EFB120E73D203120F84020F92A7
:100E3000E4FD7F6B120F147D077F19120F141D7FC5
:100E40001A120F147D187F1B120F147D017F1C02D4
:020E50000F147D
:020EC800AC0775
:100ECA00120E0EAB07EC04FF120E0EAD07EBFE7C02
:070EDA0000E42DFFEC3EFED9
:010EE10022EE
:0605E4008B278A288929FB
:1005EA00E4F534F533F532F531E530146030146052
:1005FA00572402600302081B7F3B120EC8AB27AACE
:10060A0028A929EE8FF012045A7F3D120EC8AB2A90
:10061A00AA2BA92CEE8FF012045A7F3F80247F4325
:10062A00120EC8AB27AA28A929EE8FF012045A7F06
:10063A0045120EC8AB2AAA2BA92CEE8FF012045A27
:08064A007F47120EC802080FE1
:100652007F3B120EC8AC06AD07EC1202A68F388E95
:10066200378D368C357F3D120EC8AC06AD07EC12C5
:1006720002A68F3C8E3B8D3A8C397F3F120EC8AC5E
:1006820006AD07EC1202A68F408E3F8D3E8C3DAF29
:100692003CAE3BAD3AAC39A804A905AA06AB071299
:1006A20000FBC004C005C006C007AF40AE3FAD3E70
:1006B200AC3DA804A905AA06AB071200FBD003D0E3
:1006C20002D001D00012000A120948A804A905AA02
:1006D20006AB07AF38AE37AD36AC351202048F44E5
:1006E2008E438D428C4112083CE4FBFA7934784304
:1006F2001200FB7BC37AF5794878401202048F44DA
:100702008E438D428C411202DFAB27AA28A929EE23
:100712008FF012045AAF38AE37AD36AC35A804A903
:1007220005AA06AB071200FBC004C005C006C0073D
:10073200AF40AE3FAD3EAC3DA804A905AA06AB074B
:100742001200FBD003D002D001D00012000A12091D
:1007520048A804A905AA06AB07AF3CAE3BAD3AAC2C
:10076200391202048F448E438D428C4112083CE4BC
:10077200FBFA793478431200FB7BC37AF579487827
:10078200401202048F448E438D428C411202DFAB31
:100792002AAA2BA92CEE8FF012045AAF3CAE3BAD25
:1007A2003AAC39A804A905AA06AB071200FBC0049B
:1007B200C005C006C007AF38AE37AD36AC35A804A9
:1007C200A905AA06AB071200FBD003D002D001D0C4
:1007D2000012000A120948AB40AA3FA93EA83D12E6
:1007E20002048F448E438D428C4112083CE4FBFA92
:1007F200793478431200FB7BC37AF579487840124A
:1008020002048F448E438D428C411202DFAB2DAA2B
:090812002EA92FEE8FF012045AFA
:01081B0022BA
:1000030002034BE86480F8E933E83360110460F0DD
:10001300ED33EC337009E8FCE9FDEAFEEBFF220463
:1000230060DED3EB9FEA9EE99DE8C2E78CF0C2F75E
:1000330095F0400CE8CCF8E9CDF9EACEFAEBCFFB2A
:1000430012031685D0F05804700320D5B3E804706A
:10005300075002B2D502035592D5EC0460F7E4CC05
:10006300C0E0C398F8603B94186008400DD0E0FBF3
:1000730002032DE4FBFAC9FC8028E830E406E4C956
:10008300FBE4CAFCE830E305E4C9CACBFCE8540747
:100093006010F8C3E913F9EA13FAEB13FBEC13FC52
:1000A300D8F130F52FC3E49CFCEF9BFFEE9AFEEDF5
:1000B30099FDD0E0FBEF4E4D4C701222DB0302039F
:1000C30052EC2CFCEF33FFEE33FEED33FDED30E766
:1000D300EB02032DEF2BFFEE3AFEED39FDD0E0FBF3
:1000E30050130BBB0003020355ED13FDEE13FEEF9C
:0800F30013FFEC13FC02032DC6
:1000FB00EC4D6011E8497017ED33EC3304600DE4FF
:10010B00FCFFFEFD22E933E8330470F802034B12C7
:10011B00031658046009E4CC2481500628500902C8
:10012B000355284003020352C0E0EB4A7044B980E8
:10013B0006D0E0FB020341EF4E701CBD8008EBFFC5
:10014B00EAFEE9FD80EBE98DF0A4FEE5F00201E4A7
:10015B00E9CDF9EAFEEBFFEF89F0A4FCE5F0CE89DF
:10016B00F0A42EFFE435F0CD89F0A42DFEE435F09C
:10017B008067EF4E7005BD80D780C3EF8BF0A4ACCA
:10018B00F0EE8BF0A42CFCE435F0F8EF8AF0A42C05
:10019B00E5F038FCE433CB8DF0A42CFCE5F03BF818
:1001AB00EE8AF0A42CFCE5F038F8E433CF89F0A408
:1001BB002CFCE5F038CF3400CE89F0A42FFFE5F00E
:1001CB003EFEE433C98DF0A42EFEE5F039CD8AF066
:1001DB00A42FFFE5F03EFEE43DFD33D0E0FB5007DE
:1001EB000BBB000F020355EC2CFCEF33FFEE33FE81
:0601FB00ED33FD02032DAF
:10020100020355EC5D046005E85904700302034BD9
:10021100120316580460F6EC4860F2EC7004FDFE1F
:10022100FF22C860DB2481C85009C39860025006D0
:100231000203529850CAF582E9294B4A7005AB82F4
:1002410002034175F0007C1A7880C3EF9BEE9AEDB2
:1002510099400DC3EF9BFFEE9AFEED99FDE842F048
:10026100DC23ACF0D0E0FFD0E0FED0E0FDAB82209B
:10027100E7101BEB60BAEC2CFCEF33FFEE33FEED25
:1002810033FD02032DE803F830E705C0F075F000F7
:10029100EF2FFFEE33FEED33FD40B830E7C280AA09
:1002A10075F020800E75F010800575F0087D007ED8
:1002B100007F003392D530D503120596EC33401000
:1002C100EF33FFEE33FEED33FDEC33FCD5F0ED22E1
:0E02D100E5F0247EA2D513CC92E7CDCEFF221D
:1002DF00EDD2E7CD33EC3392D524814006E4FFFE17
:1002EF00FDFC22FCE4CFCECDCC24E0501174FF8076
:1002FF00EDC3CC13CCCD13CDCE13CECF13CF047013
:07030F00F030D5DE02059677
:1009440002034B22EDA2E7D2E7F9EC3340F260F365
:10095400B4FF08ED547F70E8020355F82481C2E027
:10096400C0E0F40428FAC313FCED92E7FD8C458D36
:10097400468E478F48EEA2E7E9BA7F02C3133400DC
:100984009400FA75F091A4E5F013F494FE8AF0A4AF
:1009940033E5F033248CD313FDE492E7FE7F007C2F
:1009A4003F758302ECC0E0F8EDC0E0F9EEC0E0FA78
:1009B400EFC0E0FBAC45AD46AE47AF48120204D0F1
:1009C400E0FBD0E0FAD0E0F9D0E0F812000AED64E0
:1009D40080FD30E7011CD583CBED33CC33F8D0E078
:0A09E400A2E71328C313CC13FD2271
:10081C00BE1249253E4CCCCDBEAAAAAB3F800000EF
:10082C003E7ADBB03EED63383F24BC7D3F490FDBA5
:10083C00ED33ECC2E7CC339203B4FF13ED547F607D
:10084C000302034B7FDB7E0F7DC97C3F020937C25D
:10085C0004C3947F401E7007EDD2E794904015EFCF
:10086C00FBEEFAEDF9ECF87F007E007D807C3F1208
:10087C000204D204ED33EC33248430E705E4C0E009
:10088C00806D04FAEDD2E754F0C333DAFD5407342B
:10089C00002323C0E0CCC0E0F8EDC0E0F9EEC0E0EE
:1008AC00FAEFC0E0FBE41202ABEC24FEFC8C458DAD
:1008BC00468E478F481200FB7B007A007980783F88
:1008CC0012000AECC545B2E7FCEDC546FDEEC54786
:1008DC00FEEFC548FFD0E0FBD0E0FAD0E0F9D0E065
:1008EC00F812000AA845A946AA47AB481202048C84
:1008FC00458D468E478F4890081C7403120360A8E0
:10090C0045A946AA47AB481200FBD0E0600F24284B
:10091C00F582E43408F5831205B412000A30040B96
:10092C007BDB7A0F79C978BF12000AED33EC3360A8
:08093C0006ECA20392E7FC2285
:10031600E9D2E7C933E833F892D5EDD2E7CD33EC2D
:0703260033FC5002B2D522A6
:10032D00EC30E7100FBF000C0EBE00080DBD000431
:10033D000BEB6014A2D5EB13FCED92E7FD2274FFDD
:10034D00FCFDFEFF22E480F8A2D574FF13FC7D8036
:03035D00E480EF4A
:10036000C0E0EFFBEEFAEDF9ECF81200FBD0E0F59F
:10037000F0EFFBEEFAEDF9ECF81205A4A3A3A3A3AA
:10038000E8C0E0E9C0E0EAC0E0EBC0E0C0F0120085
:10039000FB1205B4A3A3A3A312000AD0F0D0E0FB84
:0D03A000D0E0FAD0E0F9D0E0F8D5F0D4229A
:100B2D00020A91E493A3F8E493A34003F68001F243
:100B3D0008DFF48029E493A3F85407240CC8C333C9
:100B4D00C4540F4420C8834004F456800146F6DF98
:100B5D00E4800B0102040810204080900FB4E47E65
:100B6D00019360BCA3FF543F30E509541FFEE4938D
:100B7D00A360010ECF54C025E060A840B8E493A354
:100B8D00FAE493A3F8E493A3C8C582C8CAC583CA7F
:100B9D00F0A3C8C582C8CAC583CADFE9DEE780BE37
:010FBB000035
:1003AD00BB010689828A83E0225002E722BBFE024E
:0903BD00E32289828A83E4932281
:1003C600BB010CE58229F582E5833AF583E02250EC
:1003D60006E92582F8E622BBFE06E92582F8E22236
:0D03E600E58229F582E5833AF583E4932250
:1003F300EF8DF0A4A8F0CF8CF0A428CE8DF0A42E1E
:02040300FE22D7
:10040500BC000BBE0029EF8DF084FFADF022E4CCDB
:10041500F875F008EF2FFFEE33FEEC33FCEE9DECA4
:10042500984005FCEE9DFE0FD5F0E9E4CEFD22EDEA
:10043500F8F5F0EE8420D21CFEADF075F008EF2F34
:10044500FFED33FD4007985006D5F0F222C398FD25
:050455000FD5F0EA22C2
:10045A00BB010A89828A83F0E5F0A3F0225006F7ED
:0F046A0009A7F01922BBFE06F3E5F009F31922EA
:10047900E88FF0A4CC8BF0A42CFCE98EF0A42CFC22
:100489008AF0EDA42CFCEA8EF0A4CDA8F08BF0A4A0
:100499002DCC3825F0FDE98FF0A42CCD35F0FCEBFF
:1004A9008EF0A4FEA9F0EB8FF0A4CFC5F02ECD39C4
:0F04B900FEE43CFCEAA42DCE35F0FDE43CFC2231
:1004C80075F008758200EF2FFFEE33FECD33CDCCEB
:1004D80033CCC58233C5829BED9AEC99E58298406E
:1004E8000CF582EE9BFEED9AFDEC99FC0FD5F0D64B
:1004F800E4CEFBE4CDFAE4CCF9A88222B800C1B975
:100508000059BA002DEC8BF084CFCECDFCE5F0CBB2
:10051800F97818EF2FFFEE33FEED33FDEC33FCEBEB
:1005280033FB10D703994004EB99FB0FD8E5E4F9A6
:10053800FA227818EF2FFFEE33FEED33FDEC33FC93
:10054800C933C910D7059BE99A4007EC9BFCE99A87
:10055800F90FD8E0E4C9FAE4CCFB2275F010EF2FCC
:10056800FFEE33FEED33FDCC33CCC833C810D707CC
:100578009BEC9AE899400AED9BFDEC9AFCE899F807
:0E0588000FD5F0DAE4CDFBE4CCFAE4C8F9229A
:0E059600C3E49FFFE49EFEE49DFDE49CFC2276
:1005A400E493FC740193FD740293FE740393FF229D
:1005B400E493F8740193F9740293FA740393FB229D
:1005C4007401FF3395E0FEFDFC080808E6CF2FF622
:1005D40018E6CE3EF618E6CD3DF618E6CC3CF622FB
:00000001FF
